:100000000C94F40218950000189500001895000053
:10001000189500001895000018950000189500002C
:10002000189500001895000018950000189500001C
:10003000189500000C9449031895000018950000CD
:100040000C946C031895000018950000189500009A
:1000500018950000189500001895000018950000EC
:10006000189500001895000019D000910701009321
:10007000090114D00091070100930A010FD00091EB
:10008000070100930B010AD00091070100930C01B6
:1000900005D00091070100930D01089500E0009341
:1000A00001010093070100930401309B04C000E0AC
:1000B000009304010FC00091040103950093040113
:1000C00008EE10910401011780F704E00093160177
:1000D00067D20895309901C00FC0009104010395C3
:1000E000009304010EE510910401011798F705E053
:1000F0000093160155D2089500910701000F009357
:10010000070100910401013428F0009107010395D3
:1001100000930701009101010395009301010091F3
:100120000101083011F60895389A0EE8102E1A943D
:100130001ED210E01116D9F7389825D200E00093AE
:100140001601089500E000930401309B05C001E012
:100150000093160125D2089530990FC00091040133
:1001600003950093040101E7109104010117A0F722
:1001700002E00093160114D2089500E000930401F8
:10018000309B0FC00091040103950093040101E727
:10019000109104010117A0F703E00093160100D2AB
:1001A00008950895C1D0009109010093130100E062
:1001B000009315010091150103950093150100E0CE
:1001C00000930E010093100100931201009113019E
:1001D000003019F1009113010A9500931301009169
:1001E0000E01039500930E0100910E010A3071F784
:1001F00000E000930E01009110010395009310019F
:10020000009110010A3011F700E0009310010091F5
:100210001201039500931201D9CF00910E010063E2
:1002200000930E01009110010063009310010091F2
:10023000120100630093120120901201CAD097D1DD
:1002400020901001C6D093D120900E01C2D08FD142
:1002500000E2202EBED08BD100910A010093130141
:1002600000911501013009F4A5CF00910B01009315
:10027000130100911501023009F49CCF00910C018B
:100280000093130100911501033009F493CF0091FD
:100290000D010093130100911501043009F48ACF78
:1002A00008950091090100931301009113010A6060
:1002B0000093130100E000930E01009310010091E0
:1002C00013010030F1F0009113010A95009313011E
:1002D00000910E01039500930E0100910E010A306A
:1002E00071F700E000930E01009110010395009357
:1002F0001001009110010A3011F700E00093100185
:10030000DECF00910E01006300930E0100911001F9
:10031000006300931001209010015BD028D1209041
:100320000E0157D024D108955B9800EC202E51D0B7
:100330001ED15B9A08E4202E4CD019D105E7202E5F
:1003400048D015D10DE6202E44D011D109E6202E3B
:1003500040D00DD104E6202E3CD009D109E6202E54
:1003600038D005D104E7202E34D001D109E7202E62
:1003700030D0FDD00AE3202E2CD0F9D092DF05E258
:10038000202E27D0F4D008955A9A000000000000D3
:10039000000000000000000000000000000000005D
:1003A000000000000000000000000000000000004D
:1003B000000000000000000000000000000000003D
:1003C00000000000000000000000000000005A983B
:1003D0000895122C10EF11220BB10F700BB90BB155
:1003E00001290BB9D1DF1FE02122220C220C220CA3
:1003F000220C0BB10F700BB90BB102290BB9C4DF82
:1004000008955B980BB10F700BB90BB100620BB97B
:10041000BBDF9FD001E0202EDCDF9BD09AD099D0AB
:1004200098D006E0202ED5DF94D00CE0202ED1DF2E
:1004300090D004E1202ECDDF8CD00CE2202EC9DF3D
:1004400088D000E4202EC5DF84D000E8202EC1DF54
:1004500080D05B9A08955B9800E8202EBADF87D0A1
:100460005B9A04E5202EB5DF82D005E6202EB1DFB1
:100470007ED00DE6202EADDF7AD000E7202EA9DF5A
:1004800076D005E6202EA5DF72D002E7202EA1DF70
:100490006ED001E6202E9DDF6AD004E7202E99DF82
:1004A00066D005E7202E95DF62D002E7202E91DF8F
:1004B0005ED005E6202E8DDF5AD00AE3202E89DF9C
:1004C00056D009D00FED202E84DF51D003E4202E2A
:1004D00080DF4DD0089500910B010093140100E0DE
:1004E00000930F0100931101009114010030F1F00D
:1004F000009114010A950093140100910F010395D6
:1005000000930F0100910F010A3071F700E0009392
:100510000F01009111010395009311010091110148
:100520000A3011F700E000931101DECF00910F01B6
:10053000006300930F01009111010063009311010A
:100540002090110146DF13D020900F0142DF0FD021
:10055000089500E0009302010091020103950093C9
:10056000020105D0009102010431B1F7089500E0C5
:1005700004BD02E005BD0EEF002200FEFECF00E04C
:1005800004BD05BD089500E0009301010091010143
:10059000039500930101009101010E33B9F708950D
:1005A00005E4202E16DFE3DF02E7202E12DFDFDF77
:1005B00002E7202E0EDFDBDF0FE6202E0ADFD7DF7B
:1005C00002E7202E06DFD3DF00911601005D0093C5
:1005D000160120901601FDDECADF00E2202EF9DEB2
:1005E000C6DF04E0002A0895F8940FEF0DBF08E07D
:1005F0000EBF00E0009382000093800004E00093AF
:10060000810000E004BD05BD0093700001E000938F
:100610006F0000936E0000E00093C50007E60093B2
:10062000C4000EE00093C20000E40093C00009E1A2
:100630000093C1000AB104500AB9409800E0009349
:100640000801009100010093C6003898789400E0FA
:100650000093000100910801003031F4009108017D
:10066000039500930801CDDE009100010130E1F710
:100670005BDD0BEF002266DD02FCF6CFF5DCEBDE86
:1006800053DE0DD000E00093040101E00093080167
:10069000DCCF0091000103950093000118950091B3
:1006A000C00006FFFCCF009110010093C60000912E
:1006B0000E010093C6000091C00005FFFCCF009121
:1006C00011010093C6000091C00005FFFCCF00910E
:0E06D0000F010093C600089501E0002A18955E
:00000001FF
