:100000000C94340018950000189500001895000015
:10001000189500001895000018950000189500002C
:10002000189500001895000018950000189500001C
:10003000189500000C9471001895000018950000A8
:100040000C946E001895000018950000189500009B
:1000500018950000189500001895000018950000EC
:100060001895000018950000F8940FEF0DBF08E0F8
:100070000EBF00E0009382000093800004E0009334
:10008000810000E004BD05BD0093700001E0009315
:100090006F0000936E0000E00093C50007E6009338
:1000A000C40006E00093C20000E40093C00009E130
:1000B0000093C1000AB103600AB940983898789457
:1000C000A6D0009102010030E1F715D01FD085D0F5
:1000D00049D104D100E000930301FFCF01E0002AE1
:1000E000189500910201039500930201009102010D
:1000F0000093C6001895389A0EE8102E1A9484D1F1
:1001000010E01116D9F738988BD1089500E00093CC
:100110000301309B02C091D1089530990CC0009129
:10012000030103950093030101E7109103010117F7
:10013000A0F783D1089500E000930301309B0CC029
:100140000091030103950093030101E7109103015E
:100150000117A0F772D10895089500E000930001FF
:100160000093040100930301309B04C000E000935E
:1001700003010CC00091030103950093030108EEF5
:1001800010910301011780F758D10895309901C0EB
:100190000CC0009103010395009303010EE510913B
:1001A0000301011798F749D1089500910401000F48
:1001B00000930401009103010F3328F00091040122
:1001C0000395009304010091000103950093000141
:1001D00000910001083041F60895BFDF009104014D
:1001E00000930501BADF0091040100930601B5DF19
:1001F0000091040100930701B0DF00910401009316
:100200000801ABDF009104010093090108955B9898
:100210000BB10F700BB90BB100620BB93AD0E6D03D
:1002200001E0202E1ED0E2D0E1D0E0D0DFD006E009
:10023000202E17D0DBD00CE0202E13D0D7D004E135
:10024000202E0FD0D3D00CE0202E0BD0CFD000E446
:10025000202E07D0CBD000E8202E03D0C7D05B9A49
:100260000895122C10EF11220BB10F700BB90BB1C6
:1002700001290BB90ED01FE02122220C220C220CE6
:10028000220C0BB10F700BB90BB102290BB901D0C5
:1002900008955A9A000000000000000000000000CD
:1002A000000000000000000000000000000000004E
:1002B000000000000000000000000000000000003E
:1002C000000000000000000000000000000000002E
:1002D00000000000000000005A9808955B9800E8B4
:1002E000202EBFDF91D05B9A0091070100930C0193
:1002F00000E000930A0100930B0100910C01003013
:10030000F1F000910C010A9500930C0100910A0193
:10031000039500930A0100910A010A3071F700E089
:1003200000930A0100910B01039500930B010091CA
:100330000B010A3011F700E000930B01DECF0091B2
:100340000A01006300930A0100910B01006300930E
:100350000B0120900B0185DF57D020900A0181DF2F
:1003600053D008955B9800EC202E7BDF4DD05B9A34
:100370000091050100930C0100E000930A01009335
:100380000B0100910C010030F1F000910C010A9575
:1003900000930C0100910A01039500930A0100915A
:1003A0000A010A3071F700E000930A0100910B0185
:1003B000039500930B0100910B010A3011F700E047
:1003C00000930B01DECF00910A01006300930A0144
:1003D00000910B01006300930B0120900B0141DFA2
:1003E00013D020900A013DDF0FD0089500E0009364
:1003F00001010091010103950093010105D00091D5
:1004000001010431B1F7089500E004BD02E005BD2B
:100410000EEF002200FEFECF00E004BD05BD0895F2
:1004200000E000930001009100010395009300019A
:10043000009100010E33B9F7089500E3202E11DF7B
:10044000E3DF00E3202E0DDFDFDF00E3202E09DFF6
:04045000DBDF089551
:00000001FF
